:100000000C9435010C9466010C9466010C94660105
:100010000C9466010C9466010C9466010C946601C4
:100020000C9466010C9466010C9466010C946601B4
:100030000C9466010C9466010C9466010C946601A4
:100040000C9466010C9466010C9466010C94660194
:100050000C9466010C9466010C9466010C940B05DB
:100060000C9466010C947F050C9455050C94660164
:100070000C9466010C9466010C9466010C94660164
:100080000C9466010C9466010C9466010C94660154
:100090000C9466010C9466010C9466010C94660144
:1000A0000C9466010C9466010C9466010C94660134
:1000B0000C9466010C9466010C9466010C94660124
:1000C0000C9466010C9466010C9466010C94660114
:1000D0000C9466010C9466010C9466010C94660104
:1000E0000C9466010C94C1010C9413080C945003F9
:1000F0000C9494010C94C7010C9486010C94420357
:100100000C94B9010C94DF020C94AF010C94B20270
:100110000C94A1010C94D5030C94B3010C948803A6
:100120000C94BD010C949B010C94A5010C94C60188
:100130000C94CB010C94AB010C9490010C9498019D
:100140000C948C010C94EE02000021002400270086
:100150002A002D00300033000101000004010701D6
:100160000A0100002200250028002B002E0031008B
:10017000340002010000050108010B01000020000D
:100180002300260029002C002F003200000100006F
:10019000030106010901050505050705080808080A
:1001A000020202020A0A080804040404010101010F
:1001B000010101010303030303030303040707070A
:1001C0000C0C0C0C0C0C0C0C0202020206060606AF
:1001D000060606060B0B0B0B0B0B0B0B010210207C
:1001E000200808102040102040800201020108046D
:1001F0000201010204081020408080402010080401
:100200000201800402018040201008040201080459
:10021000020101020408102040800102040810209D
:10022000408000000A0B02090C0D0E0807030401B0
:1002300000000000000000000000000000000000BE
:10024000000000000000000000000000000012118B
:10025000100000000000000000000000000000008E
:100260000000000000000000130811241FBECFEFA3
:10027000D1E2DEBFCDBF00E00CBF22E0AAE3B2E0D6
:1002800001C01D92A63EB207E1F712E0A0E0B2E085
:10029000E6E3F6E100E00BBF02C007900D92AA333F
:1002A000B107D9F711E0C5E3D1E000E006C021971E
:1002B0000109802FFE010E94E708C433D10780E0C6
:1002C0000807A9F70E94B5050C94190B0C940000BF
:1002D0008150823108F05AC0E82FF0E08827EC58AE
:1002E000FE4F8F4F0C94E7089401980186018C0112
:1002F0009001C6019B01A101A501AB01AF01B301B2
:10030000B901BD01C601C101C701CB0180918000C7
:100310008F77809380000895809180008F7DF9CF42
:1003200080918000877FF5CF84B58F7784BD089555
:1003300084B58F7DFBCF8091B0008F778093B00024
:1003400008958091B0008F7DF9CF809190008F77D4
:10035000809390000895809190008F7DF9CF8091D7
:100360009000877FF5CF8091A0008F778093A000C9
:1003700008958091A0008F7DF9CF8091A000877FA4
:10038000F5CF809120018F7780932001089580918F
:1003900020018F7DF9CF80912001877FF5CFCF930A
:1003A000DF93282F30E0F901EE5DFD4F8491F901D4
:1003B000E452FE4FD491F901EA56FE4FC491CC238A
:1003C000A1F081110E946801EC2FF0E0EE0FFF1FF9
:1003D000E458FE4FA591B491EC91ED2381E090E0BB
:1003E00009F480E0DF91CF91089580E090E0FACFAA
:1003F0001F93CF93DF93282F30E0F901EE5DFD4F7F
:100400008491F901E452FE4FD491F901EA56FE4F6E
:10041000C491CC23A9F0162F81110E946801EC2F02
:10042000F0E0EE0FFF1FEE59FE4FA591B4918FB78C
:10043000F894EC91111108C0D095DE23DC938FBFA6
:10044000DF91CF911F910895DE2BF8CFCF93DF93EB
:1004500090E0FC01E452FE4F24918A569E4FFC012D
:1004600084918823D1F090E0880F991FFC01E85B0C
:10047000FE4FA591B491FC01EE59FE4FC591D49168
:1004800061110EC09FB7F8948C91E22FE0958E23F6
:100490008C932881E223E8839FBFDF91CF91089559
:1004A0008FB7F894EC91E22BEC938FBFF6CF3FB768
:1004B000F89480913D0290913E02A0913F02B0914C
:1004C000400226B5A89B05C02F3F19F00196A11D3B
:1004D000B11D3FBFBA2FA92F982F8827BC01CD018E
:1004E000620F711D811D911D42E0660F771F881FED
:1004F000991F4A95D1F708958F929F92AF92BF921C
:10050000CF92DF92EF92FF920E9457024B015C0163
:1005100088EEC82E83E0D82EE12CF12C0E945702E1
:10052000681979098A099B09683E7340810591051C
:10053000A8F321E0C21AD108E108F10888EE880E7C
:1005400083E0981EA11CB11CC114D104E104F10484
:1005500029F7FF90EF90DF90CF90BF90AF909F90E2
:100560008F900895AF92BF92CF92DF92EF92FF9259
:100570000F931F93CF93DF936C017B018B01040FCB
:10058000151FEB015E01AE18BF08C017D10759F067
:100590006991D601ED91FC910190F081E02DC601A9
:1005A0001995892B79F7C501DF91CF911F910F9193
:1005B000FF90EF90DF90CF90BF90AF900895FC0137
:1005C000538D448D252F30E0842F90E0821B930BB8
:1005D000541710F0CF96089501970895FC01918D5E
:1005E000828D981761F0A28DAE0FBF2FB11D5D9661
:1005F0008C91928D9F5F9F73928F90E008958FEF03
:100600009FEF08952FB7F894809141029091420294
:10061000A0914302B09144022FBF80934D0290936A
:100620004E02A0934F02B093500285E492E00E94E4
:10063000EE0297FF26C02FB7F89480914102909167
:100640004202A0914302B09144022FBF40914D025B
:1006500050914E0260914F0270915002841B950B95
:10066000A60BB70B4091490250914A0260914B0290
:1006700070914C0284179507A607B707B0F28FEF69
:100680009FEF0895FC01918D828D981731F0828D36
:10069000E80FF11D858D90E008958FEF9FEF08958D
:1006A000FC01918D228D892F90E0805C9F4F821BF1
:1006B00091098F739927089585E492E00E94500371
:1006C00021E0892B09F420E0822F0895FC01A48DFC
:1006D000A80FB92FB11DA35ABF4F2C91848D90E064
:1006E00001968F739927848FA689B7892C93A08947
:1006F000B1898C91837080648C93938D848D9813D1
:1007000006C00288F389E02D80818F7D8083089563
:10071000EF92FF920F931F93CF93DF93EC0181E051
:10072000888F9B8D8C8D98131AC0E889F9898081F8
:1007300085FF15C09FB7F894EE89FF896083E8892B
:10074000F98980818370806480839FBF81E090E01D
:10075000DF91CF911F910F91FF90EF900895F62EAA
:100760000B8D10E00F5F1F4F0F731127E02E8C8D44
:100770008E110CC00FB607FCFACFE889F989808189
:1007800085FFF5CFCE010E946603F1CFEB8DEC0F14
:10079000FD2FF11DE35AFF4FF0829FB7F8940B8FA6
:1007A000EA89FB8980818062CFCFCF93DF93EC0110
:1007B000888D8823B9F0AA89BB89E889F9898C9149
:1007C00085FD03C0808186FD0DC00FB607FCF7CF05
:1007D0008C9185FFF2CF808185FFEDCFCE010E9405
:1007E0006603E9CFDF91CF91089580E090E0892BF7
:1007F00029F00E945C0381110E94000080E090E0DB
:10080000892B49F080E090E0892B29F00E940000BC
:1008100081110E94000080E090E0892B49F080E087
:1008200090E0892B29F00E94000081110E940000B5
:1008300080E090E0892B49F080E090E0892B29F05E
:100840000E94000081110C9400000895FC010190A9
:100850000020E9F73197AF01481B590BBC0185E433
:1008600092E00C94B2028F929F92AF92BF920F933C
:100870001F93CF93DF93CDB7DEB7A1970FB6F89450
:10088000DEBF0FBECDBF19A2423008F44AE08E0190
:100890000F5D1F4F842E912CB12CA12CA50194012A
:1008A0000E94C508E62FB901CA01EA30F4F4E05D00
:1008B000D801EE938D01232B242B252B79F790E083
:1008C00080E0109719F0CD010E942604A1960FB682
:1008D000F894DEBF0FBECDBFDF91CF911F910F9176
:1008E000BF90AF909F908F900895E95CE1CFCF9239
:1008F000DF92EF92FF92CF93DF936B017C016DE269
:1009000085E492E00E948803EC0166277727CB01FB
:100910006C197D098E099F094AE00E9433048C0FEF
:100920009D1FDF91CF91FF90EF90DF90CF900895C2
:100930000F931F93CF93DF93EC01888199810097E8
:1009400059F02A813B812617370730F081E0DF918B
:10095000CF911F910F9108958B016F5F7F4F0E9480
:10096000280A009759F0998388831B830A832C8176
:100970003D81232B59F7FC011082E8CF80E0E7CFBF
:10098000CF92DF92EF92FF920F931F93CF93DF935B
:1009900000D000D01F921F92CDB7DEB77C01CB01F3
:1009A0004AE09E012F5F3F4F6901B9010E9467082D
:1009B000F60101900020E9F73197EC19FD09D9F013
:1009C000D70114960D911C910E0F1F1FB801C7017E
:1009D0000E949804882381F0F7012081318184816D
:1009E0009581B601820F931F0E94120BD7011596B5
:1009F0001C930E93149781E028960FB6F894DEBFEF
:100A00000FBECDBFDF91CF911F910F91FF90EF905F
:100A1000DF90CF9008951F920F920FB60F9211247E
:100A20002F933F938F939F93AF93BF9380914102F6
:100A300090914202A0914302B091440230913C0255
:100A400023E0230F2D3758F50196A11DB11D2093EA
:100A50003C028093410290934202A0934302B093E0
:100A6000440280913D0290913E02A0913F02B091DC
:100A700040020196A11DB11D80933D0290933E025C
:100A8000A0933F02B0934002BF91AF919F918F918D
:100A90003F912F910F900FBE0F901F90189526E851
:100AA000230F0296A11DB11DD2CF1F920F920FB638
:100AB0000F9211240BB60F922F933F934F935F9396
:100AC0006F937F938F939F93AF93BF93EF93FF9316
:100AD00085E492E00E946603FF91EF91BF91AF9190
:100AE0009F918F917F916F915F914F913F912F9146
:100AF0000F900BBE0F900FBE0F901F9018951F9276
:100B00000F920FB60F9211240BB60F922F938F9363
:100B10009F93EF93FF93E0915502F09156028081ED
:100B2000E0915B02F0915C0282FD1DC0908180919A
:100B30005E028F5F8F7320915F02821741F0E09118
:100B40005E02F0E0EB5BFD4F958F80935E02FF91BC
:100B5000EF919F918F912F910F900BBE0F900FBE31
:100B60000F901F9018958081F2CFCF93DF9300D024
:100B700000D01F921F92CDB7DEB7789484B5826003
:100B800084BD84B5816084BD85B5826085BD85B531
:100B9000816085BD80916E00816080936E001092AF
:100BA000810080918100826080938100809181002A
:100BB00081608093810080918000816080938000BB
:100BC0008091B10084608093B1008091B000816019
:100BD0008093B00080919100826080939100809119
:100BE000910081608093910080919000816080935A
:100BF00090008091A10082608093A1008091A1006B
:100C000081608093A1008091A00081608093A0000A
:100C10008091210182608093210180912101816076
:100C20008093210180912001816080932001809137
:100C30007A00846080937A0080917A008260809349
:100C40007A0080917A00816080937A0080917A00A6
:100C5000806880937A001092C100E0915502F09173
:100C6000560282E08083E0915102F091520210829C
:100C7000E0915302F09154028FEC808310925D0258
:100C8000E0915902F0915A0286E08083E091570288
:100C9000F0915802808180618083E0915702F09149
:100CA0005802808188608083E0915702F091580259
:100CB000808180688083E0915702F09158028081A2
:100CC0008F7D808317E061E0812F0E9426021F5FE5
:100CD0001E30C9F761E084E00E94260261E085E0F1
:100CE0000E94260261E086E00E94260261E083E025
:100CF0000E94260261E082E00E94260260E08EE00F
:100D00000E94260260E08FE00E94260260E080E1FF
:100D10000E94260260E081E10E94260260E084E1F8
:100D20000E94260260E085E10E94260260E086E1E2
:100D30000E94260208E010E085E492E00E94500341
:100D4000181619060CF06CC085E492E00E94EE02C1
:100D5000823509F070C01A8219821C821B821E82A1
:100D60001D8270E060E0CE0101960E949804298106
:100D70003A81811158C02115310519F0C9010E942D
:100D80009F091A8219821E821D821C821B828EE09C
:100D90000E94CF01BC01CE0101960E94C0048FE0E9
:100DA0000E94CF01BC01CE0101960E94C00480E1E7
:100DB0000E94CF01BC01CE0101960E94C00481E1D6
:100DC0000E94CF01BC01CE0101960E94C00484E1C3
:100DD0000E94CF01BC01CE0101960E94C00485E1B2
:100DE0000E94CF01BC01CE0101960E94C00486E1A1
:100DF0000E94CF01BC01CE0101960E94C0044D812A
:100E00005E8169817A8185E492E00E94B20281E28A
:100E100092E00E94260489819A81009709F000C11E
:100E20000E94F50389CF1E821D8263E272E0C90130
:100E30000E94120BACCF61E082E00E94F801E090CA
:100E40003A02F0903B026E2D617086E00E94F8013C
:100E5000B70175956795617085E00E94F801B7014B
:100E60007595679575956795617084E00E94F801A6
:100E7000C7010196B8010E94B10890933B0280938C
:100E80003A020E947C021A8219821C821B821E82F4
:100E90001D8270E060E0CE0101960E9498042981D5
:100EA0003A8181112FC02115310519F0C9010E9425
:100EB0009F091A8219821E821D821C821B820E9437
:100EC000020397FD27C08A30910521F18F83188690
:100ED000ED80FE808FEFE81AF80AB701CE01019687
:100EE0000E949804882359F329813A818D819E813B
:100EF000BE01695F7F4F820F931F0E94120BFE821B
:100F0000ED82DDCF1E821D8263E272E0C9010E9484
:100F1000120BD5CF89819A81C12CD12C76010097F3
:100F200019F00E9440086B0156010E947C0284E285
:100F300092E00E942604B601DD0C880B990B97FF06
:100F40006BC00E94770481E292E00E9426049DE03B
:100F5000492E512C612C712CF12CE12C65010E2CA9
:100F600002C0D594C7940A94E2F781E0C822DD2438
:100F70006C2D842D0E94F80185E392E00E942604E6
:100F80004AE0C301B2010E94330482E392E00E946E
:100F9000260488E192E0CD2811F08CE192E00E94D5
:100FA000260481E292E00E9426048FEFE81AF80AF4
:100FB00081E0481A51086108710887E0E816F104D9
:100FC00069F60E947C0261E083E00E94F8010E94C1
:100FD0007C0260E083E00E94F8010E947C0287E0CE
:100FE000F82E60E08F2D0E94F801F3948EE0F81245
:100FF000F8CF60E084E00E94F80160E085E00E94A4
:10100000F80160E086E00E94F8010E947C0260E046
:1010100082E00E94F801FFCE4AE00E94330493CFA1
:101020000E949F09FDCEE5E4F2E01382128288EE71
:1010300093E0A0E0B0E084839583A683B7838AE041
:1010400092E09183808385EC90E09587848784EC9F
:1010500090E09787868780EC90E0918B808B81EC85
:1010600090E0938B828B82EC90E0958B848B86EC66
:1010700090E0978B868B118E128E138E148E0895AE
:101080001F93FC0199278827BC01E8941191103225
:10109000E9F3193010F01E30C8F31B3251F01D3245
:1010A00049F4689406C00E947208610F711D811D89
:1010B000911D119110531A30B0F33EF49095809524
:1010C000709561957F4F8F4F9F4F1F910895BB275C
:1010D0004A3031F4992322F4BDE2909581959F4FD7
:1010E0000C948808592F482F372F262F660F771F0B
:1010F000881F991F660F771F881F991F620F731F24
:10110000841F951F660F771F881F991F0895BB279F
:10111000FB015527AA27880F991FAA1FA41710F0B3
:10112000A41B83955051B9F7A05DAA3308F0A95DBF
:10113000A193009779F7B111B1931192CB010C945F
:10114000A108DC01FC01672F71917723E1F7329749
:1011500004C07C916D9370836291AE17BF07C8F392
:10116000089597FB072E16F4009407D077FD09D059
:101170000E94EF0807FC05D03EF4909581959F4FA3
:101180000895709561957F4F0895A1E21A2EAA1BCC
:10119000BB1BFD010DC0AA1FBB1FEE1FFF1FA21727
:1011A000B307E407F50720F0A21BB30BE40BF50B24
:1011B000661F771F881F991F1A9469F760957095AD
:1011C000809590959B01AC01BD01CF010895EE0F74
:1011D000FF1F881F8BBF0790F691E02D1994AA1B63
:1011E000BB1B51E107C0AA1FBB1FA617B70710F012
:1011F000A61BB70B881F991F5A95A9F78095909544
:10120000BC01CD0108950F931F93CF93DF938230DC
:10121000910510F482E090E0E091E402F091E502A3
:1012200030E020E0B0E0A0E0309799F421153105DE
:1012300009F44AC0281B390B24303105D8F58A81BE
:101240009B816115710589F1FB0193838283FE0106
:1012500011C0408151810281138148175907E0F084
:101260004817590799F4109761F012960C9312974A
:1012700013961C933296CF01DF91CF911F910F915E
:1012800008950093E4021093E502F4CF211531058F
:1012900051F04217530738F0A901DB019A01BD0153
:1012A000DF01F801C1CFEF01F9CF9093E502809300
:1012B000E402CDCFFE01E20FF31F81939193225000
:1012C000310939832883D7CF2091E2023091E3029C
:1012D000232B41F420910202309103023093E30268
:1012E0002093E20220910002309101022115310584
:1012F00041F42DB73EB74091040250910502241BE2
:10130000350BE091E202F091E302E217F307A0F45B
:101310002E1B3F0B2817390778F0AC014E5F5F4F4B
:101320002417350748F04E0F5F1F5093E302409398
:10133000E202819391939FCFF0E0E0E09CCFCF93C6
:10134000DF930097E9F0FC01329713821282A0919B
:10135000E402B091E502ED0130E020E01097A1F445
:1013600020813181820F931F2091E2023091E302AC
:101370002817390709F061C0F093E302E093E20215
:10138000DF91CF910895EA01CE17DF07E8F54A8192
:101390005B819E0141155105B1F7E901FB83EA83A9
:1013A00049915991C40FD51FEC17FD0761F4808155
:1013B00091810296840F951FE90199838883828128
:1013C00093819B838A83F0E0E0E012968D919C915B
:1013D00013970097B9F52D913C911197CD01029685
:1013E000820F931F2091E2023091E3022817390700
:1013F00039F6309751F51092E5021092E402B0935D
:10140000E302A093E202BCCFD383C2834081518127
:10141000840F951FC817D90761F44E5F5F4F88810D
:101420009981480F591F518340838A819B819383FF
:1014300082832115310509F0B0CFF093E502E093E6
:10144000E4029ECFFD01DC01C0CF13821282D7CF10
:101450004F925F926F927F928F929F92AF92BF92C4
:10146000CF92DF92EF92FF920F931F93CF93DF9370
:101470008C01009799F4CB01DF91CF911F910F91CF
:10148000FF90EF90DF90CF90BF90AF909F908F90A4
:101490007F906F905F904F900C940309FC01E60FD2
:1014A000F71F9C0122503109E217F30708F4AEC080
:1014B000D901CD91DC911197C617D70720F1C5301E
:1014C000D10578F0CE0104978617970750F0C61B18
:1014D000D70B2297C193D1936D937C93CF010E9438
:1014E0009F09C801DF91CF911F910F91FF90EF905D
:1014F000DF90CF90BF90AF909F908F907F906F9034
:101500005F904F9008955B01AC1ABD0A4C018C0EA0
:101510009D1EA091E402B091E502512C412CF12CCA
:10152000E12C109731F58091E2029091E302881549
:10153000990509F05CC04616570608F058C080911E
:10154000000290910102009741F48DB79EB740913F
:10155000040250910502841B950BE817F90708F067
:1015600055C0F093E302E093E202F90171836083D6
:10157000B8CF8D919C91119712966C9012971396FB
:101580007C901397A815B90559F56C0142E0C40E7B
:10159000D11CCA14DB0420F1AC014A195B09DA0141
:1015A0001296159780F06282738251834083D9012D
:1015B0006D937C93E114F10471F0D7011396FC93C1
:1015C000EE9312978ECF22968C0F9D1FF901918377
:1015D0008083F301EFCFF093E502E093E40281CF43
:1015E0004816590608F42C017D01D3019ACFCB018E
:1015F0000E9403097C01009749F0AE01B8010E94E6
:10160000090BC8010E949F0987016BCF10E000E021
:1016100068CFFB01DC0102C001900D9241505040A7
:10162000D8F70895FB01DC0101900D920020E1F74D
:061630000895F894FFCFBD
:101636000000E6028000000000008803B202DF021C
:10164600D5035003EE0242034C4F57004849474822
:10165600000D0A0056616C6F7220726563696269DB
:0A166600646F3A200050696E200006
:00000001FF
